{
  "contractName": "Dwetransfer",
  "abi": [
    {
      "inputs": [],
      "stateMutability": "nonpayable",
      "type": "constructor"
    },
    {
      "anonymous": false,
      "inputs": [
        {
          "indexed": false,
          "internalType": "uint256",
          "name": "id",
          "type": "uint256"
        },
        {
          "indexed": false,
          "internalType": "string",
          "name": "fileUrl",
          "type": "string"
        }
      ],
      "name": "FileGetCid",
      "type": "event"
    },
    {
      "anonymous": false,
      "inputs": [
        {
          "indexed": false,
          "internalType": "uint256",
          "name": "id",
          "type": "uint256"
        },
        {
          "indexed": false,
          "internalType": "address",
          "name": "tweeter",
          "type": "address"
        },
        {
          "indexed": false,
          "internalType": "string",
          "name": "fileUrl",
          "type": "string"
        }
      ],
      "name": "tweetPublished",
      "type": "event"
    },
    {
      "inputs": [],
      "name": "owner",
      "outputs": [
        {
          "internalType": "address",
          "name": "",
          "type": "address"
        }
      ],
      "stateMutability": "view",
      "type": "function",
      "constant": true
    },
    {
      "inputs": [
        {
          "internalType": "uint256",
          "name": "id",
          "type": "uint256"
        },
        {
          "internalType": "uint256",
          "name": "id2",
          "type": "uint256"
        }
      ],
      "name": "getFile",
      "outputs": [
        {
          "internalType": "uint256",
          "name": "",
          "type": "uint256"
        },
        {
          "internalType": "string",
          "name": "",
          "type": "string"
        },
        {
          "internalType": "address",
          "name": "",
          "type": "address"
        }
      ],
      "stateMutability": "payable",
      "type": "function",
      "payable": true
    },
    {
      "inputs": [
        {
          "internalType": "string",
          "name": "fileUrl",
          "type": "string"
        }
      ],
      "name": "addTweet",
      "outputs": [
        {
          "internalType": "uint256",
          "name": "",
          "type": "uint256"
        }
      ],
      "stateMutability": "payable",
      "type": "function",
      "payable": true
    }
  ],
  "bytecode": "0x608060405234801561001057600080fd5b506000600181905550336000806101000a81548173ffffffffffffffffffffffffffffffffffffffff021916908373ffffffffffffffffffffffffffffffffffffffff160217905550610c7c806100686000396000f3fe6080604052600436106100345760003560e01c806359ee12bc146100395780638da5cb5b14610069578063a0e41a7714610094575b600080fd5b610053600480360381019061004e9190610646565b6100c6565b604051610060919061088a565b60405180910390f35b34801561007557600080fd5b5061007e61025b565b60405161008b919061080f565b60405180910390f35b6100ae60048036038101906100a9919061068f565b61027f565b6040516100bd939291906108e3565b60405180910390f35b600067016345785d8a00003414610112576040517f08c379a00000000000000000000000000000000000000000000000000000000081526004016101099061086a565b60405180910390fd5b60006002600060015481526020019081526020016000209050338160010160006101000a81548173ffffffffffffffffffffffffffffffffffffffff021916908373ffffffffffffffffffffffffffffffffffffffff16021790555060015481600001819055508281600201908051906020019061019192919061051e565b507f76402d6ca204719e948431e0a8aea4ef46a414c73b9477235f4098a7e9211d6a60015433856040516101c7939291906108a5565b60405180910390a1600160008154809291906101e290610ab9565b919050555060008054906101000a900473ffffffffffffffffffffffffffffffffffffffff1673ffffffffffffffffffffffffffffffffffffffff166108fc349081150290604051600060405180830381858888f1935050505015801561024d573d6000803e3d6000fd5b508060000154915050919050565b60008054906101000a900473ffffffffffffffffffffffffffffffffffffffff1681565b60006060600060015485106102c9576040517f08c379a00000000000000000000000000000000000000000000000000000000081526004016102c09061082a565b60405180910390fd5b60015484106102d757600080fd5b6702c68af0bb1400003414610321576040517f08c379a00000000000000000000000000000000000000000000000000000000081526004016103189061084a565b60405180910390fd5b600060026000878152602001908152602001600020905060008054906101000a900473ffffffffffffffffffffffffffffffffffffffff1673ffffffffffffffffffffffffffffffffffffffff166108fc67016345785d8a00009081150290604051600060405180830381858888f193505050501580156103a6573d6000803e3d6000fd5b508060010160009054906101000a900473ffffffffffffffffffffffffffffffffffffffff1673ffffffffffffffffffffffffffffffffffffffff166108fc67016345785d8a00009081150290604051600060405180830381858888f19350505050158015610419573d6000803e3d6000fd5b507fccd17471c1b75b2d81b292f8f9bc80abda16c2aca09babb86eaca475ac4ec937868260020160405161044e929190610921565b60405180910390a18060000154816002018260010160009054906101000a900473ffffffffffffffffffffffffffffffffffffffff1681805461049090610a56565b80601f01602080910402602001604051908101604052809291908181526020018280546104bc90610a56565b80156105095780601f106104de57610100808354040283529160200191610509565b820191906000526020600020905b8154815290600101906020018083116104ec57829003601f168201915b50505050509150935093509350509250925092565b82805461052a90610a56565b90600052602060002090601f01602090048101928261054c5760008555610593565b82601f1061056557805160ff1916838001178555610593565b82800160010185558215610593579182015b82811115610592578251825591602001919060010190610577565b5b5090506105a091906105a4565b5090565b5b808211156105bd5760008160009055506001016105a5565b5090565b60006105d46105cf84610976565b610951565b9050828152602081018484840111156105f0576105ef610b94565b5b6105fb848285610a14565b509392505050565b600082601f83011261061857610617610b8f565b5b81356106288482602086016105c1565b91505092915050565b60008135905061064081610c2f565b92915050565b60006020828403121561065c5761065b610b9e565b5b600082013567ffffffffffffffff81111561067a57610679610b99565b5b61068684828501610603565b91505092915050565b600080604083850312156106a6576106a5610b9e565b5b60006106b485828601610631565b92505060206106c585828601610631565b9150509250929050565b6106d8816109d8565b82525050565b60006106e9826109bc565b6106f381856109c7565b9350610703818560208601610a23565b61070c81610ba3565b840191505092915050565b6000815461072481610a56565b61072e81866109c7565b94506001821660008114610749576001811461075b5761078e565b60ff198316865260208601935061078e565b610764856109a7565b60005b8381101561078657815481890152600182019150602081019050610767565b808801955050505b50505092915050565b60006107a4600b836109c7565b91506107af82610bb4565b602082019050919050565b60006107c76017836109c7565b91506107d282610bdd565b602082019050919050565b60006107ea6017836109c7565b91506107f582610c06565b602082019050919050565b61080981610a0a565b82525050565b600060208201905061082460008301846106cf565b92915050565b6000602082019050818103600083015261084381610797565b9050919050565b60006020820190508181036000830152610863816107ba565b9050919050565b60006020820190508181036000830152610883816107dd565b9050919050565b600060208201905061089f6000830184610800565b92915050565b60006060820190506108ba6000830186610800565b6108c760208301856106cf565b81810360408301526108d981846106de565b9050949350505050565b60006060820190506108f86000830186610800565b818103602083015261090a81856106de565b905061091960408301846106cf565b949350505050565b60006040820190506109366000830185610800565b81810360208301526109488184610717565b90509392505050565b600061095b61096c565b90506109678282610a88565b919050565b6000604051905090565b600067ffffffffffffffff82111561099157610990610b60565b5b61099a82610ba3565b9050602081019050919050565b60008190508160005260206000209050919050565b600081519050919050565b600082825260208201905092915050565b60006109e3826109ea565b9050919050565b600073ffffffffffffffffffffffffffffffffffffffff82169050919050565b6000819050919050565b82818337600083830152505050565b60005b83811015610a41578082015181840152602081019050610a26565b83811115610a50576000848401525b50505050565b60006002820490506001821680610a6e57607f821691505b60208210811415610a8257610a81610b31565b5b50919050565b610a9182610ba3565b810181811067ffffffffffffffff82111715610ab057610aaf610b60565b5b80604052505050565b6000610ac482610a0a565b91507fffffffffffffffffffffffffffffffffffffffffffffffffffffffffffffffff821415610af757610af6610b02565b5b600182019050919050565b7f4e487b7100000000000000000000000000000000000000000000000000000000600052601160045260246000fd5b7f4e487b7100000000000000000000000000000000000000000000000000000000600052602260045260246000fd5b7f4e487b7100000000000000000000000000000000000000000000000000000000600052604160045260246000fd5b600080fd5b600080fd5b600080fd5b600080fd5b6000601f19601f8301169050919050565b7f4e6f207477656574206964000000000000000000000000000000000000000000600082015250565b7f506c65617365207375626d697420302e32206574686572000000000000000000600082015250565b7f506c65617365207375626d697420302e31206574686572000000000000000000600082015250565b610c3881610a0a565b8114610c4357600080fd5b5056fea26469706673582212206d3837c09a16f6b4d5e1ca5c28e4ea5e6fc9df8fdf0803ad4e1b2361539f668f64736f6c63430008070033",
  "immutableReferences": {},
  "source": "// SPDX-License-Identifier: MIT\npragma solidity ^0.8.7;\n\ncontract Dwetransfer {\n  address public owner;\n  uint256 private counter;\n\n  constructor(){\n    counter = 0;\n    owner = msg.sender;\n  }\n\n  struct file {\n    uint256 id;\n    address tweeter;\n    string fileUrl;\n  }\n\n  event tweetPublished (\n    uint256 id,\n    address tweeter,\n    string fileUrl\n  );\n\n  event FileGetCid(uint256 id, string fileUrl);\n\n  mapping(uint256 => file) files;\n\n\n  function getFile(uint256 id, uint256 id2) public payable returns(uint256 , string memory, address){\n    require(id < counter, \"No tweet id\");\n    require(id2 < counter);\n    require(msg.value == (0.2 ether), \"Please submit 0.2 ether\");\n    file storage item = files[id];\n    payable(owner).transfer(0.1 ether);\n    payable(item.tweeter).transfer(0.1 ether);\n    emit FileGetCid(id, item.fileUrl);\n    return(item.id, item.fileUrl, item.tweeter);\n  }\n\n  function addTweet(string memory fileUrl)public payable returns (uint256){\n    require(msg.value == (0.1 ether), \"Please submit 0.1 ether\");\n    file storage newFile = files[counter];\n    \n    newFile.tweeter = msg.sender;\n    newFile.id = counter;\n    newFile.fileUrl = fileUrl;\n\n    emit tweetPublished(counter, msg.sender, fileUrl);\n    counter++;\n    payable(owner).transfer(msg.value);\n    return(newFile.id);\n  }\n\n\n}",
  "sourcePath": "D:\\NEU\\work\\tttt\\1\\contracts\\Dwetransfer.sol",
  "compiler": {
    "name": "solc",
    "version": "0.8.7+commit.e28d00a7.Emscripten.clang"
  },
  "schemaVersion": "3.4.7",
  "updatedAt": "2022-07-19T03:02:25.602Z",
  "networkType": "ethereum",
  "devdoc": {
    "kind": "dev",
    "methods": {},
    "version": 1
  },
  "userdoc": {
    "kind": "user",
    "methods": {},
    "version": 1
  }
}